:100000000C942A000C94CA100C94FD100C9430111E
:100010000C9447000C9409060C9447000C9447007C
:100020000C9447000C94D6050C9447000C94A3053F
:100030000C9447000C9447000C9447000C94470024
:100040000C9447000C9447000C9447000C94470014
:100050000C94470011241FBECFE5D8E0DEBFCDBF12
:1000600010E0A0E6B0E0EAECFFE302C005900D92DC
:10007000A637B107D9F710E0A6E7B0E001C01D929E
:10008000A83CB107E1F70E94F01B0C94E31F0C940D
:100090000000EF92FF920F931F937B018C0120E0F1
:1000A00030E040E05FE40E94490388238CF0C801FF
:1000B000B70120E030E040E05FE40E94C1010E940F
:1000C000A9039B01AC01205030404040504806C07D
:1000D000C801B7010E94A9039B01AC01B901CA0183
:1000E0001F910F91FF90EF900895A0E0B0E0EBE733
:1000F000F0E00C94021DDC012B01FA019C9192307E
:1001000008F439C1EB018881823008F433C194309E
:1001100069F4843009F02FC111969C91119789815F
:10012000981709F428C1ADE6B0E025C1843009F480
:1001300021C18230A9F4923009F01DC19A01AD01AC
:1001400088E0EA010990AE01E90109929E0181501F
:10015000C1F7E201898111969C918923818308C1AD
:10016000923009F407C112962D903C901397EB0141
:100170008A819B811496AD90BD90CD90DC901797AD
:10018000EC80FD800E811F819101281B390BB90184
:1001900037FF04C066277727621B730B6032710537
:1001A0000CF061C0121613066CF537014801062EDB
:1001B00004C096948794779467940A94D2F721E0C8
:1001C00030E040E050E004C0220F331F441F551FB1
:1001D0006A95D2F721503040404050402E213F21B7
:1001E00040235123211531054105510521F021E01E
:1001F00030E040E050E079018A01E628F72808293C
:1002000019293CC0232BD1F1260E371E350146019A
:10021000062E04C096948794779467940A94D2F734
:1002200021E030E040E050E004C0220F331F441FC3
:10023000551F6A95D2F721503040404050402A2146
:100240003B214C215D21211531054105510521F04E
:1002500021E030E040E050E059016A01A628B728CB
:10026000C828D9280BC0821593052CF01C01AA249C
:10027000BB24650103C0EE24FF24870111969C91E5
:10028000D20111968C91981709F445C0992339F041
:10029000A80197012A193B094C095D0906C0A6016E
:1002A00095012E193F09400B510B57FD08C01182D3
:1002B0003382228224833583468357831DC081E0A5
:1002C00081833382228288279927DC01821B930B4A
:1002D000A40BB50B84839583A683B7830DC0220F2F
:1002E000331F441F551F24833583468357838281E0
:1002F000938101979383828324813581468157813D
:10030000DA01C9010197A109B1098F5F9F4FAF4F72
:10031000BF4328F30BC0918333822282EA0CFB1C7B
:100320000C1D1D1DE482F5820683178383E0808304
:10033000248135814681578157FF1AC0C901AA27F8
:1003400097FDA095BA2F81709070A070B0705695EF
:10035000479537952795822B932BA42BB52B848318
:100360009583A683B7838281938101969383828349
:10037000DF0101C0D201CD01CDB7DEB7E2E10C94BF
:100380001E1DA0E2B0E0E7ECF1E00C940E1D6983C5
:100390007A838B839C832D833E834F835887E9E048
:1003A000EE2EF12CEC0EFD1ECE010196B7010E943F
:1003B000D2048E010F5E1F4FCE010596B8010E9438
:1003C000D2048A8991E089278A8BC701B801AE01DE
:1003D000475E5F4F0E9475000E94FD03A096E6E015
:1003E0000C942A1DA0E2B0E0E8EFF1E00C940E1DA1
:1003F00069837A838B839C832D833E834F835887C5
:10040000F9E0EF2EF12CEC0EFD1ECE010196B701A6
:100410000E94D2048E010F5E1F4FCE010596B801D7
:100420000E94D204C701B801AE01475E5F4F0E942F
:1004300075000E94FD03A096E6E00C942A1DA0E240
:10044000B0E0E5E2F2E00C94021D69837A838B83CD
:100450009C832D833E834F835887CE010196BE0136
:10046000675F7F4F0E94D204CE010596BE016F5E8A
:100470007F4F0E94D2049985923088F0898982301A
:10048000C8F0943019F4823051F404C0843029F457
:10049000923081F48DE690E0C6C0923049F420E0BD
:1004A0009A858A89981321E02A87CE010996BBC0D4
:1004B000823049F420E09A858A89981321E02A8BBA
:1004C000CE014196B0C02D843E844F8458886D88FB
:1004D0007E888F88988CEE24FF248701AA24BB2471
:1004E000650140E050E060E070E0E0E0F0E0C10174
:1004F00081709070892BE9F0E60CF71C081D191D1E
:100500009A01AB012A0D3B1D4C1D5D1D80E090E062
:10051000A0E0B0E0E614F7040805190520F481E036
:1005200090E0A0E0B0E0BA01A901480F591F6A1F8E
:100530007B1FAA0CBB1CCC1CDD1C97FE08C081E0F5
:1005400090E0A0E0B0E0A82AB92ACA2ADB2A3196B6
:10055000E032F10549F0660C771C881C991C569412
:10056000479437942794C3CFFA85EA892B893C892D
:100570008B859C85280F391F2E5F3F4F17C0CA01FE
:1005800081709070892B61F016950795F794E79428
:1005900080E090E0A0E0B0E8E82AF92A0A2B1B2BC3
:1005A00076956795579547952F5F3F4F77FDE7CF36
:1005B0000CC0440F551F661F771F17FD4160EE0CDE
:1005C000FF1C001F111F21503040403090E05907A0
:1005D00090E0690790E4790760F32B8F3C8FDB0193
:1005E000CA018F779070A070B07080349105A1051A
:1005F000B10561F447FD0AC0E114F10401051105DC
:1006000029F0405C5F4F6F4F7F4F40781A8EFE1786
:1006100011F081E08A8F4D8F5E8F6F8F78A383E01A
:10062000898FCE0149960E94FD03A096E2E10C94C9
:100630001E1DA8E1B0E0EFE1F3E00C940E1D69830C
:100640007A838B839C832D833E834F83588789E0F5
:10065000E82EF12CEC0EFD1ECE010196B7010E9492
:10066000D2048E010F5E1F4FCE010596B8010E9485
:10067000D2048985823040F08989823028F0C70110
:10068000B8010E944A0501C08FEF6896E6E00C941D
:100690002A1DA8E1B0E0EFE4F3E00C940E1D69839D
:1006A0007A838B839C832D833E834F83588789E095
:1006B000E82EF12CEC0EFD1ECE010196B7010E9432
:1006C000D2048E010F5E1F4FCE010596B8010E9425
:1006D000D2048985823040F08989823028F0C701B0
:1006E000B8010E944A0501C08FEF6896E6E00C94BD
:1006F0002A1DA8E1B0E0EFE7F3E00C940E1D69833A
:100700007A838B839C832D833E834F83588789E034
:10071000E82EF12CEC0EFD1ECE010196B7010E94D1
:10072000D2048E010F5E1F4FCE010596B8010E94C4
:10073000D2048985823040F08989823028F0C7014F
:10074000B8010E944A0501C081E06896E6E00C9479
:100750002A1DACE0B0E0EFEAF3E00C94121D6983CF
:100760007A838B839C83CE010196BE016B5F7F4FA2
:100770000E94D2048D81823061F1823050F1843048
:1007800021F48E81882351F12EC02F81388537FDC9
:1007900020C06E812F3131051CF06623F9F023C093
:1007A0008EE190E0821B930B29853A854B855C8511
:1007B00004C056954795379527958A95D2F76623B5
:1007C000B1F050954095309521953F4F4F4F5F4F79
:1007D0000EC020E030E040E050E009C02FEF3FEFD6
:1007E0004FEF5FE704C020E030E040E050E8B9019F
:1007F000CA012C96E2E00C942E1DDF92EF92FF923C
:100800000F931F93FC01E480F58006811781D1804E
:100810008081823048F480E090E0A0E1B0E0E82AF6
:10082000F92A0A2B1B2BA5C0843009F49FC0823003
:1008300021F4EE24FF24870105C0E114F104010531
:10084000110519F4E0E0F0E096C0628173819FEF3A
:10085000623879070CF05BC022E83FEF261B370BAC
:100860002A3131052CF020E030E040E050E02AC091
:10087000B801A701022E04C0769567955795479554
:100880000A94D2F781E090E0A0E0B0E004C0880FC5
:10089000991FAA1FBB1F2A95D2F70197A109B10979
:1008A0008E219F21A023B1230097A105B10521F03E
:1008B00081E090E0A0E0B0E09A01AB01282B392B59
:1008C0004A2B5B2BDA01C9018F779070A070B07052
:1008D00080349105A105B10539F427FF09C0205CDA
:1008E0003F4F4F4F5F4F04C0215C3F4F4F4F5F4F13
:1008F000E0E0F0E02030A0E03A07A0E04A07A0E402
:100900005A0710F0E1E0F0E079018A0127C0603871
:10091000710564F5FB01E158FF4FD801C7018F77DE
:100920009070A070B07080349105A105B10539F4C4
:10093000E7FE0DC080E490E0A0E0B0E004C08FE3EB
:1009400090E0A0E0B0E0E80EF91E0A1F1B1F17FFA1
:1009500005C016950795F794E794319687E01695AC
:100960000795F794E7948A95D1F705C0EE24FF2404
:100970008701EFEFF0E06E2F679566276795902F60
:100980009F77D794DD24D7948E2F8695492F462BB9
:10099000582F5D29B701CA011F910F91FF90EF9069
:1009A000DF900895FC01DB01408151812281622F9B
:1009B0006F7770E0221F2227221F9381892F880FD3
:1009C000822B282F30E0991F9927991F11969C930D
:1009D000119721153105A9F54115510561057105DD
:1009E00011F482E037C082E89FEF13969C938E93B8
:1009F00012979A01AB0167E0220F331F441F551F66
:100A00006A95D1F783E08C930DC0220F331F441FEA
:100A1000551F12968D919C911397019713969C9355
:100A20008E931297203080E0380780E0480780E4FA
:100A3000580758F314962D933D934D935C93179755
:100A400008952F3F310579F4411551056105710570
:100A500019F484E08C93089564FF03C081E08C93C3
:100A600012C01C9210C02F57304013963C932E9307
:100A7000129783E08C9387E0440F551F661F771F02
:100A80008A95D1F7706414964D935D936D937C9322
:100A9000179708951F93DC01FB019C91923008F495
:100AA00047C08081823008F443C0943051F41196DD
:100AB0001C91843099F58181682F70E0611B710968
:100AC0003FC0843021F0923031F48230B9F181811D
:100AD000882389F12DC011961C9111978230F1F075
:100AE00081811817D9F412962D913C911397828128
:100AF00093818217930794F028173907BCF0149656
:100B00008D919D910D90BC91A02D248135814681C0
:100B10005781281739074A075B0718F4112341F05A
:100B20000AC082179307A407B50740F4112319F0F0
:100B300061E070E005C06FEF7FEF02C060E070E041
:100B4000CB011F9108951F920F920FB60F9211249F
:100B50002F933F934F935F936F937F938F939F93C5
:100B6000AF93BF93EF93FF93DF93CF93CDB7DEB7F0
:100B70008091790090917A00009729F0E0917900B6
:100B8000F0917A000995CF91DF91FF91EF91BF919C
:100B9000AF919F918F917F916F915F914F913F9115
:100BA0002F910F900FBE0F901F9018951F920F92CC
:100BB0000FB60F9211242F933F934F935F936F9330
:100BC0007F938F939F93AF93BF93EF93FF93DF93A5
:100BD000CF93CDB7DEB780917B0090917C000097DA
:100BE00029F0E0917B00F0917C000995CF91DF9195
:100BF000FF91EF91BF91AF919F918F917F916F91F5
:100C00005F914F913F912F910F900FBE0F901F90CA
:100C100018951F920F920FB60F9211242F933F93A6
:100C20004F935F936F937F938F939F93AF93BF93F4
:100C3000EF93FF93DF93CF93CDB7DEB780917D0025
:100C400090917E00009729F0E0917D00F0917E0068
:100C50000995CF91DF91FF91EF91BF91AF919F9156
:100C60008F917F916F915F914F913F912F910F9055
:100C70000FBE0F901F901895DF93CF93CDB7DEB7BF
:100C800029970FB6F894DEBF0FBECDBF9A83898334
:100C900089819A81009709F40AC1E981FA818081EA
:100CA000882F90E0FC01EA58FF4F8081882309F0EB
:100CB000FEC0E981FA818181833008F0F8C0E981C2
:100CC000FA818281823008F0F2C0E981FA81838161
:100CD000883008F0ECC0E981FA818081882331F006
:100CE000E981FA818081813009F091C0E981FA813E
:100CF0008081882321F4E3E5F0E0108204C0EEE473
:100D0000F0E011821082E981FA8182818130C1F4A0
:100D100029E530E039872887E9E5F0E080818F8395
:100D2000E981FA818081882319F034E03E8302C092
:100D300081E08E838F819E81892BE885F985808370
:100D4000E981FA8181818823B9F0E981FA8183817F
:100D5000813019F0F1E0FD83ACC0E981FA81808136
:100D6000282F30E0E981FA81918188E0891BF9011F
:100D7000EE57FF4F80837DC0E981FA818381282F60
:100D800030E03C832B838B819C818430910501F181
:100D9000EB81FC81E530F1053CF48B819C8101976E
:100DA0008230910588F507C08B819C81069782303F
:100DB000910550F51BC0E981FA818081882F90E070
:100DC000E981FA812381FC01E158FF4F208351C062
:100DD000E981FA818081282F30E0E981FA818381DD
:100DE0008150F901E158FF4F808343C0E981FA81C6
:100DF0008081282F30E0E981FA8183818250F901D6
:100E0000E158FF4F808335C0F1E0FD8352C0E98196
:100E1000FA818081823051F5E5E4F0E01082E981C9
:100E2000FA818281813039F4E9E5F0E0A9E5B0E0AA
:100E30008C91808306C0E9E5F0E0A9E5B0E08C91F3
:100E40008083E981FA818181882319F021E02D8353
:100E500030C0E981FA818081882F90E0E981FA81B0
:100E60002381FC01E158FF4F208303C031E03D8323
:100E700020C0E981FA818081882F90E0FC01EA5846
:100E8000FF4F81E08083E981FA818081482F50E023
:100E9000E981FA81848195819C01CA01880F991F9B
:100EA000FC01E758FF4F318320831D8202C081E09F
:100EB0008D838D8129960FB6F894DEBF0FBECDBF0E
:100EC000CF91DF910895DF93CF9300D000D000D071
:100ED000CDB7DEB789837B836A838981833008F04D
:100EE00090C08981882F90E0FC01EA58FF4F8081F3
:100EF000813009F086C08981823019F08981882388
:100F000049F48A819B8121E08130920718F031E019
:100F10003E8379C08981282F30E03D832C838C81EA
:100F20009D818130910569F12C813D81223031050F
:100F300009F453C08C819D81009709F05DC0E2E502
:100F4000F0E08A81809580838981882F90E0FC0180
:100F5000EE57FF4F8081882351F4A3E5B0E0E3E52D
:100F6000F0E0908180917F00892B8C9348C0A3E5AD
:100F7000B0E0E3E5F0E0908180918200892B8C93D2
:100F80003EC0ECE4F0E08A819B818095909591834E
:100F9000808380918300882381F4AEE4B0E0EEE4A6
:100FA000F0E02081318180918000882F90E0822BB9
:100FB000932B11969C938E9322C0AEE4B0E0EEE4A6
:100FC000F0E02081318180918300882F90E0822B96
:100FD000932B11969C938E9312C0E4E4F0E08A81E7
:100FE00080958083A5E4B0E0E5E4F0E09081809115
:100FF0008100892B8C9303C091E09E8304C01E82E4
:1010000002C021E02E838E8126960FB6F894DEBFB3
:101010000FBECDBFCF91DF910895DF93CF9300D066
:1010200000D0CDB7DEB789838981282F30E03C839B
:101030002B838B819C8181309105A1F02B813C8198
:1010400022303105F9F08B819C81009731F5E2E582
:10105000F0E01082A3E5B0E0E3E5F0E08081887F76
:101060008C931EC0ECE4F0E011821082AEE4B0E09C
:10107000EEE4F0E080819181887F907011969C93DE
:101080008E930EC0E4E4F0E01082A5E4B0E0E5E465
:10109000F0E08081887F8C9303C091E09A8316C032
:1010A0008981882F90E0FC01EE57FF4F10828981E3
:1010B000882F90E0FC01EA58FF4F10828981882F29
:1010C00090E0FC01E158FF4F10821A828A810F9054
:1010D0000F900F900F90CF91DF910895DF93CF93F2
:1010E000CDB7DEB728970FB6F894DEBF0FBECDBFE1
:1010F0008A837C836B8319828A81282F30E038872A
:101100002F838F81988581309105C1F02F8138859B
:101110002230310541F18F819885009769F5E8E526
:10112000F0E08081882F90E082709070959587958F
:10113000EB81FC81808381E0898321C0E8E5F0E0D8
:101140008081882F90E08071907095958795959516
:1011500087959595879595958795EB81FC818083FB
:1011600084E089830CC0E8E5F0E09081EB81FC81AC
:10117000108280E4898303C021E02D831AC0EB81B3
:10118000FC8180818130A1F4A8E5B0E0E8E5F0E0E1
:101190008081482F8981282F30E081E090E0022E65
:1011A00002C0880F991F0A94E2F7809584238C93DC
:1011B0001D828D8128960FB6F894DEBF0FBECDBF7D
:1011C000CF91DF910895DF93CF9300D000D000D06E
:1011D000CDB7DEB789837B836A838981282F30E08E
:1011E0003E832D838D819E818130910599F02D81E3
:1011F0003E8122303105B9F08D819E810097E9F45E
:10120000E2E5F0E08081882F90E0EA81FB81918324
:10121000808316C0ECE4F0E080819181EA81FB815B
:10122000918380830DC0E4E4F0E08081882F90E01A
:10123000EA81FB819183808303C091E09C8301C09C
:101240001C828C8126960FB6F894DEBF0FBECDBFF0
:10125000CF91DF910895DF93CF93CDB7DEB72C9771
:101260000FB6F894DEBF0FBECDBF9A838983E981A4
:10127000FA818081282F30E03C872B878B859C85E5
:10128000009731F02B853C852130310561F156C046
:10129000A7E3B0E0E7E3F0E080818F7E8C93A7E3E3
:1012A000B0E0E7E3F0E080818F7D8C93A7E3B0E0CE
:1012B000E7E3F0E0808180648C93A7E3B0E0E7E3AC
:1012C000F0E080818F778C93ADE2B0E0EDE2F0E06A
:1012D00080818F7E8C93ADE2B0E0EDE2F0E0808122
:1012E00080648C932EC0A7E3B0E0E7E3F0E0808158
:1012F00080618C93A7E3B0E0E7E3F0E08081806257
:101300008C93A7E3B0E0E7E3F0E080818F7B8C93E0
:10131000A7E3B0E0E7E3F0E0808180688C93ADE282
:10132000B0E0EDE2F0E0808180618C93ADE2B0E06E
:10133000EDE2F0E0808180648C9303C081E08093D3
:101340008400E981FA818181282F30E03A8729875A
:1013500089859A858130910521F129853A85223048
:1013600031052CF489859A85009761F047C029855D
:101370003A852230310521F189859A85833091059E
:1013800071F13CC0ADE2B0E0EDE2F0E080818B7F36
:101390008C93ADE2B0E0EDE2F0E08081877F8C934A
:1013A00030C0ADE2B0E0EDE2F0E0808184608C938B
:1013B000ADE2B0E0EDE2F0E08081877F8C9321C068
:1013C000ADE2B0E0EDE2F0E080818B7F8C93ADE2A6
:1013D000B0E0EDE2F0E0808188608C9312C0ADE275
:1013E000B0E0EDE2F0E0808184608C93ADE2B0E0AB
:1013F000EDE2F0E0808188608C9303C081E080930F
:101400008400E981FA818381282F30E038872F8397
:101410008F819885009731F02F81388521303105F3
:1014200049F010C0ADE2B0E0EDE2F0E080818F77EE
:101430008C930BC0ADE2B0E0EDE2F0E0808180681B
:101440008C9303C081E080938400E981FA818281DA
:10145000282F30E03E832D838D819E81009731F0CF
:101460002D813E812130310549F010C0ADE2B0E060
:10147000EDE2F0E080818F7D8C930BC0ADE2B0E0B7
:10148000EDE2F0E0808180628C9303C081E0809384
:101490008400E981FA818481282F30E03C832B830A
:1014A0008B819C818330910509F46AC02B813C813A
:1014B0002430310584F48B819C8181309105A1F128
:1014C0002B813C81223031050CF044C08B819C8102
:1014D0000097A1F0ADC02B813C812530310509F486
:1014E0007BC08B819C81853091050CF45FC02B8182
:1014F0003C812630310509F485C09AC0ADE2B0E0E8
:10150000EDE2F0E080818E7F8C93ADE2B0E0EDE221
:10151000F0E080818D7F8C93ADE2B0E0EDE2F0E011
:10152000808181608C9387C0ADE2B0E0EDE2F0E0B5
:1015300080818E7F8C93ADE2B0E0EDE2F0E08081BF
:101540008D7F8C93ADE2B0E0EDE2F0E080818E7FA4
:101550008C9371C0ADE2B0E0EDE2F0E0808181609B
:101560008C93ADE2B0E0EDE2F0E080818D7F8C9372
:10157000ADE2B0E0EDE2F0E0808181608C935BC091
:10158000ADE2B0E0EDE2F0E0808181608C93ADE20D
:10159000B0E0EDE2F0E080818D7F8C93ADE2B0E0D1
:1015A000EDE2F0E080818E7F8C9345C0ADE2B0E04B
:1015B000EDE2F0E080818E7F8C93ADE2B0E0EDE271
:1015C000F0E0808182608C93ADE2B0E0EDE2F0E08B
:1015D000808181608C932FC0ADE2B0E0EDE2F0E05D
:1015E00080818E7F8C93ADE2B0E0EDE2F0E080810F
:1015F00082608C93ADE2B0E0EDE2F0E080818E7F1E
:101600008C9319C0ADE2B0E0EDE2F0E08081816042
:101610008C93ADE2B0E0EDE2F0E0808182608C93EB
:10162000ADE2B0E0EDE2F0E080818E7F8C9303C00C
:1016300081E080938400809184002C960FB6F8940A
:10164000DEBF0FBECDBFCF91DF910895DF93CF9363
:101650000F92CDB7DEB7898380918400882351F43F
:10166000EFE2F0E089818083EEE2F0E08081882380
:10167000DCF703C081E080938500809185000F90A6
:10168000CF91DF910895DF93CF9300D0CDB7DEB730
:101690009A83898380918400882361F4EEE2F0E0EC
:1016A00080818823DCF7EFE2F0E08081E981FA8134
:1016B000808303C081E080938500809185000F9036
:1016C0000F90CF91DF910895DF93CF93CDB7DEB721
:1016D00027970FB6F894DEBF0FBECDBF9A838983DC
:1016E000EFE4F0E01082EEE4F0E01082E6E4F0E0F7
:1016F00011821082AFE4B0E0EFE4F0E080818E7FF1
:101700008C93AFE4B0E0EFE4F0E0808182608C93F2
:10171000AEE4B0E0EEE4F0E08081877F8C93AEE44D
:10172000B0E0EEE4F0E0808180618C93AFE4B0E063
:10173000EFE4F0E080818F7B8C93AFE4B0E0EFE4E6
:10174000F0E0808180688C93AFE4B0E0EFE4F0E0FB
:1017500080818F7E8C93AFE4B0E0EFE4F0E0808195
:1017600080628C93E981FA818081282F30E03F8369
:101770002E838E819F818230910591F02E813F8151
:1017800024303105A9F08E819F8181309105F9F4D3
:10179000A1E3B0E0E1E3F0E0808180628C931AC0C5
:1017A000A1E3B0E0E1E3F0E0808180618C9312C0BE
:1017B000A1E3B0E0E1E3F0E0808180618C93A1E3FC
:1017C000B0E0E1E3F0E0808180628C9303C091E0BF
:1017D0009D837CC0E981FA818181282F30E03C83A0
:1017E0002B838B819C8183309105E1F12B813C819E
:1017F000243031055CF48B819C818130910591F01E
:101800002B813C8122303105E9F05CC08B819C81C9
:1018100084309105B9F12B813C812530310509F4E3
:1018200041C050C081E08093860081E090E0A0E05C
:10183000B0E08093870090938800A0938900B093D4
:101840008A0043C082E08093860088E090E0A0E0B8
:10185000B0E08093870090938800A0938900B093B4
:101860008A0033C083E08093860080E490E0A0E0AB
:10187000B0E08093870090938800A0938900B09394
:101880008A0023C084E08093860080E091E0A0E09D
:10189000B0E08093870090938800A0938900B09374
:1018A0008A0013C085E08093860080E094E0A0E089
:1018B000B0E08093870090938800A0938900B09354
:1018C0008A0003C031E03D8301C01D828D812796CF
:1018D0000FB6F894DEBF0FBECDBFCF91DF91089554
:1018E000DF93CF93CDB7DEB729970FB6F894DEBF5D
:1018F0000FBECDBF89836A832B833C834D835E8378
:101900008981282F30E0398728878885998582301A
:10191000910509F474C0288539852430310509F40E
:10192000D6C0888599858130910509F044C18091A0
:10193000870090918800A0918900B0918A002B8146
:101940003C814D815E81BC01CD010E94C11CDC0146
:10195000CB019C01AD01220F331F441F551F80E0B6
:1019600094E2A4EFB0E0BC01CD010E94E01CDA01DA
:10197000C9018093930090939400A0939500B09335
:101980009600E6E4F0E08091930090919400A0919D
:101990009500B0919600918380838A81882F90E092
:1019A000A0E0B0E020919300309194004091950028
:1019B00050919600BC01CD010E94C11CDC01CB01FD
:1019C00024E630E040E050E0BC01CD010E94E01C84
:1019D000DA01C90180938B0090938C00A0938D0055
:1019E000B0938E00EAE4F0E080918B0090918C003F
:1019F000A0918D00B0918E0091838083DFC0809193
:101A0000870090918800A0918900B0918A002B8175
:101A10003C814D815E81BC01CD010E94C11CDC0175
:101A2000CB019C01AD01220F331F441F551F80E0E5
:101A300094E2A4EFB0E0BC01CD010E94E01CDA0109
:101A4000C9018093970090939800A0939900B09358
:101A50009A00E6E4F0E08091970090919800A091C0
:101A60009900B0919A00918380838A81882F90E0B9
:101A7000A0E0B0E02091970030919800409199004B
:101A800050919A00BC01CD010E94C11CDC01CB0128
:101A900024E630E040E050E0BC01CD010E94E01CB3
:101AA000DA01C90180938F0090939000A093910078
:101AB000B0939200E8E4F0E080918F009091900064
:101AC000A0919100B09192009183808377C0809122
:101AD000870090918800A0918900B0918A002B81A5
:101AE0003C814D815E81BC01CD010E94C11CDC01A5
:101AF000CB019C01AD01220F331F441F551F80E015
:101B000094E2A4EFB0E0BC01CD010E94E01CDA0138
:101B1000C90180939F009093A000A093A100B0936F
:101B2000A200E6E4F0E080919F009091A000A091D7
:101B3000A100B091A200918380838A81882F90E0D8
:101B4000A0E0B0E020919F003091A0004091A10062
:101B50005091A200BC01CD010E94C11CDC01CB014F
:101B600024E630E040E050E0BC01CD010E94E01CE2
:101B7000DA01C90180939B0090939C00A0939D0083
:101B8000B0939E00EAE4F0E080919B0090919C006D
:101B9000A0919D00B0919E0091838083E8E4F0E0E5
:101BA00080919B0090919C00A0919D00B0919E001F
:101BB0009183808303C091E09F830AC0AEE4B0E0CC
:101BC000EEE4F0E0908180918600892B8C931F8257
:101BD0008F8129960FB6F894DEBF0FBECDBFCF918F
:101BE000DF910895DF93CF93CDB7DEB729970FB676
:101BF000F894DEBF0FBECDBF89836A832B833C83FD
:101C00004D835E838981282F30E039872887888536
:101C100099858230910509F470C028853985243072
:101C2000310509F4CEC0888599858130910509F088
:101C30003CC180918600882F90E0880F991FAA27C9
:101C400097FDA095BA2F2B813C814D815E81BC010F
:101C5000CD010E94C11C9B01AC0180E094E2A4EF85
:101C6000B0E0BC01CD010E94E01CDA01C901809303
:101C7000930090939400A0939500B0939600E6E4AF
:101C8000F0E08091930090919400A0919500B09124
:101C90009600918380838A81882F90E0A0E0B0E055
:101CA00020919300309194004091950050919600BE
:101CB000BC01CD010E94C11CDC01CB0124E630E057
:101CC00040E050E0BC01CD010E94E01CDA01C901F6
:101CD00080938B0090938C00A0938D00B0938E0026
:101CE000EAE4F0E080918B0090918C00A0918D004F
:101CF000B0918E0091838083DBC080918600882F15
:101D000090E0880F991FAA2797FDA095BA2F2B81E5
:101D10003C814D815E81BC01CD010E94C11C9B01B3
:101D2000AC0180E094E2A4EFB0E0BC01CD010E94E0
:101D3000E01CDA01C9018093970090939800A0936A
:101D40009900B0939A00E6E4F0E0809197009091BA
:101D50009800A0919900B0919A00918380838A8124
:101D6000882F90E0A0E0B0E020919700309198009B
:101D70004091990050919A00BC01CD010E94C11C74
:101D8000DC01CB0124E630E040E050E0BC01CD01B5
:101D90000E94E01CDA01C90180938F0090939000AB
:101DA000A0939100B0939200E8E4F0E080918F005E
:101DB00090919000A0919100B091920091838083C6
:101DC00077C08091870090918800A0918900B091A0
:101DD0008A002B813C814D815E81BC01CD010E9436
:101DE000C11CDC01CB019C01AD01220F331F441F3C
:101DF000551F80E094E2A4EFB0E0BC01CD010E9449
:101E0000E01CDA01C90180939F009093A000A09389
:101E1000A100B093A200E6E4F0E080919F009091D1
:101E2000A000A091A100B091A200918380838A813B
:101E3000882F90E0A0E0B0E020919F003091A000BA
:101E40004091A1005091A200BC01CD010E94C11C93
:101E5000DC01CB0124E630E040E050E0BC01CD01E4
:101E60000E94E01CDA01C90180939B0090939C00C2
:101E7000A0939D00B0939E00EAE4F0E080919B0067
:101E800090919C00A0919D00B0919E0091838083D1
:101E9000E8E4F0E080919B0090919C00A0919D006F
:101EA000B0919E009183808303C091E09F8301C025
:101EB0001F828F8129960FB6F894DEBF0FBECDBF6B
:101EC000CF91DF910895DF93CF930F92CDB7DEB717
:101ED0008983EEE4F0E0108280E00F90CF91DF91F3
:101EE0000895DF93CF9300D00F92CDB7DEB79A83DA
:101EF0008983E981FA818081882329F0E981FA8147
:101F000080818130E1F4A5E5B0E0E5E5F0E0808195
:101F1000482FE981FA818181282F30E0E981FA8117
:101F20008081882F90E0880F991FB90102C0660F49
:101F3000771F8A95E2F7CB01842B8C9325C0E9812A
:101F4000FA8180818230E9F4E981FA8181818230ED
:101F500041F4A4E5B0E0E4E5F0E080818F7B8C9370
:101F600013C0E981FA818181833041F4A4E5B0E0B6
:101F7000E4E5F0E0808180648C9306C071E07B83AF
:101F800014C081E08B8311C0E981FA818081882FA0
:101F900090E0E981FA8122813381880F991FFC0149
:101FA000ED55FF4F318320831B828B810F900F9063
:101FB0000F90CF91DF910895DF93CF9300D00F92D0
:101FC000CDB7DEB789836A838981882319F0898137
:101FD0008130C1F4A5E5B0E0E5E5F0E08081482F6F
:101FE0008A81282F30E08A81882F90E0880F991FFE
:101FF000B90102C0660F771F8A95E2F7CB01842BE7
:102000008C931FC089818230C9F48A81823041F467
:10201000A4E5B0E0E4E5F0E080818F7B8C9311C013
:102020008A81833041F4A4E5B0E0E4E5F0E080810A
:1020300080648C9306C071E07B8304C081E08B8355
:1020400001C01B828B810F900F900F90CF91DF9179
:102050000895DF93CF9300D000D0CDB7DEB789834A
:102060007B836A838981882361F4EAE5F0E08081DB
:1020700082958695869583708170EA81FB81808345
:102080001EC08981813051F4EAE5F0E08081881F2B
:102090008827881FEA81FB81808311C08981823073
:1020A00059F4EAE5F0E08081829586958770817029
:1020B000EA81FB81808303C081E08C8301C01C82A4
:1020C0008C810F900F900F900F90CF91DF9108951A
:1020D000DF93CF9300D0CDB7DEB789838981882382
:1020E00041F4ABE5B0E0EBE5F0E0808180648C93F7
:1020F00019C08981813041F4ABE5B0E0EBE5F0E057
:10210000808180688C930EC08981823041F4ABE578
:10211000B0E0EBE5F0E0808180628C9303C081E069
:102120008A8301C01A828A810F900F90CF91DF912C
:102130000895DF93CF9300D0CDB7DEB7898389812F
:10214000882341F4ABE5B0E0EBE5F0E080818F7BE4
:102150008C9319C08981813041F4ABE5B0E0EBE5A7
:10216000F0E080818F778C930EC08981823041F4BA
:10217000ABE5B0E0EBE5F0E080818F7D8C9303C0B0
:1021800081E08A8301C01A828A810F900F90CF91DB
:10219000DF9108951F920F920FB60F9211242F9383
:1021A0003F934F935F936F937F938F939F93AF93DF
:1021B000BF93EF93FF93DF93CF93CDB7DEB78091BB
:1021C000A3009091A400009729F0E091A300F09162
:1021D000A4000995CF91DF91FF91EF91BF91AF914D
:1021E0009F918F917F916F915F914F913F912F912F
:1021F0000F900FBE0F901F9018951F920F920FB661
:102200000F9211242F933F934F935F936F937F937C
:102210008F939F93AF93BF93EF93FF93DF93CF93EE
:10222000CDB7DEB78091A5009091A600009729F068
:10223000E091A500F091A6000995CF91DF91FF9163
:10224000EF91BF91AF919F918F917F916F915F912E
:102250004F913F912F910F900FBE0F901F901895A7
:102260001F920F920FB60F9211242F933F934F930B
:102270005F936F937F938F939F93AF93BF93EF93EE
:10228000FF93DF93CF93CDB7DEB78091A7009091F6
:10229000A800009729F0E091A700F091A800099507
:1022A000CF91DF91FF91EF91BF91AF919F918F916E
:1022B0007F916F915F914F913F912F910F900FBE42
:1022C0000F901F901895DF93CF93CDB7DEB7279768
:1022D0000FB6F894DEBF0FBECDBF9A838983E98124
:1022E000FA8182818F3F09F050C0E981FA818081B3
:1022F000282F30E03F832E838E819F81813091058E
:1023000001F12E813F81223031052CF48E819F8195
:10231000009761F037C02E813F8122303105E1F016
:102320008E819F818330910511F12CC0AAE3B0E02A
:10233000EAE3F0E09081E981FA818181892B8C9335
:1023400082C0A7E3B0E0E7E3F0E09081E981FA81A1
:102350008181892B8C9377C0A4E3B0E0E4E3F0E0C3
:102360009081E981FA818181892B8C936CC0A1E3F2
:10237000B0E0E1E3F0E09081E981FA818181892B8D
:102380008C9361C091E09D835FC0E981FA81828175
:10239000882309F058C0E981FA818081282F30E034
:1023A0003C832B838B819C818130910511F12B81A2
:1023B0003C81223031052CF48B819C81009761F0A7
:1023C0003FC02B813C812230310501F18B819C8102
:1023D0008330910541F134C0AAE3B0E0EAE3F0E0D4
:1023E0008081982FE981FA818181809589238C935E
:1023F0002AC0A7E3B0E0E7E3F0E08081982FE9810D
:10240000FA818181809589238C931DC0A4E3B0E07B
:10241000E4E3F0E08081982FE981FA818181809561
:1024200089238C9310C0A1E3B0E0E1E3F0E0808168
:10243000982FE981FA818181809589238C9303C04B
:1024400091E09D8301C01D828D8127960FB6F8947F
:10245000DEBF0FBECDBFCF91DF910895DF93CF9345
:10246000CDB7DEB728970FB6F894DEBF0FBECDBF4D
:1024700089836A834B838B818F3F09F046C08981B2
:10248000282F30E038872F838F8198858130910500
:10249000F1F02F813885223031052CF48F81988519
:1024A000009761F02FC02F81388522303105C1F0AF
:1024B0008F81988583309105E1F024C0ABE3B0E0D3
:1024C000EBE3F0E090818A81892B8C9370C0A8E3C4
:1024D000B0E0E8E3F0E090818A81892B8C9367C0BB
:1024E000A5E3B0E0E5E3F0E090818A81892B8C934D
:1024F0005EC0A2E3B0E0E2E3F0E090818A81892B44
:102500008C9355C091E09E8353C08B81882309F042
:102510004EC08981282F30E03D832C838C819D81A2
:102520008130910501F12C813D81223031052CF45F
:102530008C819D81009761F037C02C813D812230D4
:102540003105E1F08C819D818330910511F12CC022
:10255000ABE3B0E0EBE3F0E08081982F8A818095D7
:1025600089238C9324C0A8E3B0E0E8E3F0E0808105
:10257000982F8A81809589238C9319C0A5E3B0E0B8
:10258000E5E3F0E08081982F8A81809589238C9300
:102590000EC0A2E3B0E0E2E3F0E08081982F8A81F0
:1025A000809589238C9303C091E09E8301C01E8295
:1025B0008E8128960FB6F894DEBF0FBECDBFCF91A7
:1025C000DF910895DF93CF93CDB7DEB727970FB68E
:1025D000F894DEBF0FBECDBF89836A835C834B83D3
:1025E0008981282F30E03F832E838E819F81813027
:1025F0009105F1F02E813F81223031052CF48E813E
:102600009F81009761F02FC02E813F8122303105DC
:10261000C1F08E819F8183309105E1F024C0E9E310
:10262000F0E090818A818923EB81FC8180831EC048
:10263000E6E3F0E090818A818923EB81FC8180834D
:1026400015C0E3E3F0E090818A818923EB81FC816E
:1026500080830CC0E0E3F0E090818A818923EB81E4
:10266000FC81808303C091E09D8301C01D828D8128
:1026700027960FB6F894DEBF0FBECDBFCF91DF9186
:102680000895DF93CF9300D000D0CDB7DEB7898314
:102690006A838981282F30E03C832B838B819C8146
:1026A00081309105F1F02B813C81223031052CF4F1
:1026B0008B819C81009761F02EC02B813C81223060
:1026C0003105C1F08B819C8183309105E1F023C0FD
:1026D000ABE3B0E0EBE3F0E090818A8189278C9353
:1026E0001AC0A8E3B0E0E8E3F0E090818A8189278E
:1026F0008C9311C0A5E3B0E0E5E3F0E090818A811E
:1027000089278C9308C0A2E3B0E0E2E3F0E0908177
:102710008A8189278C9380E00F900F900F900F9003
:10272000CF91DF910895DF93CF9300D0CDB7DEB77F
:1027300082E089831A82CE0101960E94FB15A7E3ED
:10274000B0E0E7E3F0E0808182608C93A7E3B0E043
:10275000E7E3F0E080818B7F8C9380E00F900F9017
:10276000CF91DF910895DF93CF930F92CDB7DEB76E
:10277000A8E3B0E0E8E3F0E0808182608C93198206
:1027800003C089818F5F898389818A30D0F3A8E370
:10279000B0E0E8E3F0E080818D7F8C9380E00F90E3
:1027A000CF91DF910895DF93CF9300D000D000D078
:1027B000CDB7DEB79E838D8319821A821B821C825D
:1027C0000E94B313CE0101960E943B1689819A8123
:1027D000AB81BC812AE330E040E050E0BC01CD0198
:1027E0000E94E01CDA01C901ED81FE8191838083A2
:1027F00080E026960FB6F894DEBF0FBECDBFCF9116
:10280000DF910895DF93CF9300D000D000D0CDB7F3
:10281000DEB78B8384E0898383E08A83CE010196CF
:102820000E94640B8B81282F30E03E832D838D81A5
:102830009E818130910531F02D813E81223031051C
:1028400091F022C083E08093B5008FEF8093B700B2
:102850008CE18093B60085EB90E00E94631181E0EB
:102860008093A90014C083E08093B5008FEF80931C
:10287000B70080EE8093B60085EB90E00E94631174
:1028800081E08093A90003C031E03C8301C01C8239
:102890008C8126960FB6F894DEBF0FBECDBFCF91C8
:1028A000DF910895DF93CF93CDB7DEB729970FB6A9
:1028B000F894DEBF0FBECDBF89836A838981282F3C
:1028C00030E039872887888599858130910531F0F6
:1028D000288539852230310551F152C08A81282F4F
:1028E00030E03F832E838E819F818130910531F0CE
:1028F0002E813F812230310561F016C083E064E013
:102900004FEF0E942E1283E068E040E00E942E12FA
:102910003AC083E064E040E00E942E1283E068E069
:102920004FEF0E942E122FC031E03D832DC08A81CF
:10293000282F30E03C832B838B819C818130910553
:1029400031F02B813C812230310561F016C083E0EB
:1029500060E44FEF0E942E1283E060E840E00E94A6
:102960002E1211C083E060E440E00E942E1283E04A
:1029700060E84FEF0E942E1206C031E03D8304C094
:1029800081E08D8301C01D828D8129960FB6F89458
:10299000DEBF0FBECDBFCF91DF910895DF93CF9300
:1029A00000D000D00F92CDB7DEB789836A838981CA
:1029B000282F30E03D832C838C819D8181309105CF
:1029C00031F02C813D812230310551F012C081E07F
:1029D0006A8128EE33E040E050E00E94700C0CC0A9
:1029E00082E06A8128EE33E040E050E00E94700C03
:1029F00003C031E03B8301C01B828B810F900F909D
:102A00000F900F900F90CF91DF910895DF93CF93A8
:102A100000D000D00F92CDB7DEB789836A83898159
:102A2000282F30E03D832C838C819D81813091055E
:102A300031F02C813D812230310551F012C081E00E
:102A40006A8128EE33E040E050E00E94F20D0CC0B5
:102A500082E06A8128EE33E040E050E00E94F20D0F
:102A600003C031E03B8301C01B828B810F900F902C
:102A70000F900F900F90CF91DF910895DF93CF9338
:102A800000D000D0CDB7DEB789838981282F30E010
:102A90003C832B838B819C818130910531F02B818C
:102AA0003C812230310561F016C083E064E040E0F3
:102AB0000E942E1283E068E040E00E942E120EC0B9
:102AC00083E060E440E00E942E1283E060E840E092
:102AD0000E942E1203C031E03A8301C01A828A811B
:102AE0000F900F900F900F90CF91DF910895DF938B
:102AF000CF9300D000D0CDB7DEB78A8319828A8108
:102B0000282F30E03C832B838B819C818130910581
:102B100031F02B813C812230310551F011C0809180
:102B2000A900813019F481E089830AC0198208C0A4
:102B30008091AA00813019F481E0898301C0198253
:102B400089810F900F900F900F90CF91DF91089592
:102B5000DF93CF93CDB7DEB78091AB009091AC00FF
:102B600001969093AC008093AB00CF91DF910895D4
:102B7000DF93CF93CDB7DEB780917500833089F4B2
:102B80001092AC001092AB0080E06FEF70E00E94FA
:102B9000630782E062E00E94DC0F82E080937500B0
:102BA00024C080917500823001F580E00E940D08FC
:102BB0002DEA30E080E0B9010E94E3088091AB008B
:102BC0009091AC00382F22278091AD009091AE00FB
:102BD000820F931F9093AE008093AD0082E063E07C
:102BE0000E94DC0F83E08093750081E08093AF004A
:102BF000CF91DF910895DF93CF93CDB7DEB72D97B7
:102C00000FB6F894DEBF0FBECDBF9C878B8782E0E6
:102C1000898383E08A8388EB95E19C838B83CE0153
:102C200001960E94710F82E00E9468101D821E8230
:102C300081E08F8387E0888788EA95E19A87898792
:102C4000CE0105960E943C06EB85FC858081823092
:102C500031F4CE0101960E94710F1D8602C081E001
:102C60008D878D852D960FB6F894DEBF0FBECDBF34
:102C7000CF91DF910895DF93CF9300D0CDB7DEB72A
:102C80009A8389838091AD009091AE00E981FA81A9
:102C9000918380831092AF0080E00F900F90CF91CE
:102CA000DF910895DF93CF9300D0CDB7DEB79A833D
:102CB000898380E00F900F90CF91DF910895DF938B
:102CC000CF9300D0CDB7DEB79A83898380E00F9091
:102CD0000F90CF91DF910895DF93CF93CDB7DEB7FB
:102CE00081E00E94021482E00E94021481E060E010
:102CF0000E94CE1482E060E00E94CE1480E0CF916A
:102D0000DF910895DF93CF9300D000D00F92CDB71D
:102D1000DEB789836A838981282F30E03D832C8345
:102D20008C819D818230910591F12C813D812330F0
:102D3000310554F48C819D81009789F02C813D816F
:102D40002130310599F054C08C819D8183309105EB
:102D500079F12C813D8124303105D1F149C081E0E8
:102D60000E943E1582E00E943E1545C081E061E070
:102D70000E94521482E061E00E94521481E06A8154
:102D80000E94061582E06A810E94061534C081E027
:102D900062E00E94521482E062E00E94521481E0DC
:102DA0006A810E94061582E06A810E94061523C08E
:102DB00081E061E00E94521482E00E943E1581E0B1
:102DC0006A810E94061582E06A810E94061513C07E
:102DD00082E061E00E94521481E00E943E1581E091
:102DE0006A810E94061582E06A810E94061503C06E
:102DF00031E03B8301C01B828B810F900F900F90BD
:102E00000F900F90CF91DF910895DF93CF9300D073
:102E10000F92CDB7DEB781E08A8381E089830E947B
:102E200093138A830E946C1689838A81882329F4EC
:102E30008981882311F41B8202C081E08B838B81FE
:102E40000F900F900F90CF91DF910895DF93CF9364
:102E500000D00F92CDB7DEB781EB90E00E94D31384
:102E60008091B000282F30E03B832A838A819B81A8
:102E70008330910549F12A813B812430310554F496
:102E80008A819B81009789F02A813B81223031051C
:102E900001F124C08A819B818530910559F02A81F6
:102EA0003B812630310559F019C080E060E00E9476
:102EB000821617C081E060E50E94821612C081E090
:102EC0006EE10E9482160DC083E06EE10E948216C0
:102ED00008C082E06EE10E94821603C031E03983AF
:102EE00025C08091B1009091B2008233910520F00D
:102EF00085E08093B00019C08091B1009091B2003C
:102F00008F31910520F086E08093B0000EC0809153
:102F1000B1009091B2008E31910521F483E080934D
:102F2000B00003C082E08093B000198289810F90C5
:102F30000F900F90CF91DF910895DF93CF93CDB78E
:102F4000DEB76C970FB6F894DEBF0FBECDBF80E042
:102F500068E04FEF0E942E1280E090E0A0E8BFE30F
:102F6000898F9A8FAB8FBC8F698D7A8D8B8D9C8D5D
:102F700020E030E04AE753E40E941F02DC01CB016D
:102F80008D8B9E8BAF8BB88F6D897E898F89988D45
:102F900020E030E040E85FE30E94790388232CF4CE
:102FA00081E090E09C8B8B8B3FC06D897E898F89FF
:102FB000988D20E03FEF4FE757E40E941903181661
:102FC0004CF5698D7A8D8B8D9C8D20E030E040E250
:102FD00051E40E941F02DC01CB01BC01CD010E9423
:102FE0004900DC01CB019C8B8B8B0FC089E190E009
:102FF0009A8B898B89899A890197F1F79A8B898BAA
:103000008B899C8901979C8B8B8B8B899C890097E2
:1030100069F714C06D897E898F89988D0E94490057
:10302000DC01CB019C8B8B8B8B899C89988B8F8748
:103030008F8598890197F1F7988B8F8780E068E0FA
:1030400040E00E942E1280E090E0A0E8BFE38B8772
:103050009C87AD87BE876B857C858D859E8520E0AE
:1030600030E04AE753E40E941F02DC01CB018F836A
:103070009887A987BA876F81788589859A8520E0A6
:1030800030E040E85FE30E94790388232CF481E07C
:1030900090E09E838D833FC06F81788589859A8576
:1030A00020E03FEF4FE757E40E94190318164CF554
:1030B0006B857C858D859E8520E030E040E251E483
:1030C0000E941F02DC01CB01BC01CD010E9449001E
:1030D000DC01CB019E838D830FC089E190E09C834E
:1030E0008B838B819C810197F1F79C838B838D81EE
:1030F0009E8101979E838D838D819E81009769F7C4
:1031000014C06F81788589859A850E944900DC0109
:10311000CB019E838D838D819E819A838983898152
:103120009A810197F1F79A8389836C960FB6F89488
:10313000DEBF0FBECDBFCF91DF910895DF93CF9358
:1031400000D00F92CDB7DEB783E0FE013196DF01EC
:10315000982F1D929A95E9F719828FEF8B8382E061
:103160008A83CE0101960E946311198284E08A83CA
:10317000CE0101960E946311198288E08A83CE01F4
:1031800001960E946311198280E18A83CE01019623
:103190000E946311198280E28A83CE0101960E9407
:1031A0006311198280E48A83CE0101960E94631123
:1031B000198280E88A83CE0101960E9463110F90E4
:1031C0000F900F90CF91DF910895DF93CF9300D0B0
:1031D000CDB7DEB78A8381E089838A8182958F703B
:1031E0008A839A8189818923882331F080E060E194
:1031F0004FEF0E942E1205C080E060E140E00E9487
:103200002E128981882F90E0880F991F89839A81D7
:1032100089818923882331F080E060E24FEF0E94AA
:103220002E1205C080E060E240E00E942E128981EB
:10323000882F90E0880F991F89839A81898189233B
:10324000882331F080E060E44FEF0E942E1205C029
:1032500080E060E440E00E942E128981882F90E097
:10326000880F991F89839A8189818923882331F066
:1032700080E060E84FEF0E942E1205C080E060E819
:1032800040E00E942E120F900F90CF91DF91089591
:10329000DF93CF93CDB7DEB72F970FB6F894DEBF8D
:1032A0000FBECDBF8F8780E062E04FEF0E942E12ED
:1032B0008F850E94E5180E949D178F858295807FDB
:1032C0000E94E5180E949D1780E090E0A0E8BFE30F
:1032D0008B879C87AD87BE876B857C858D859E851A
:1032E00020E030E04AE753E40E941F02DC01CB01FA
:1032F0008F839887A987BA876F81788589859A8512
:1033000020E030E040E85FE30E94790388232CF45A
:1033100081E090E09E838D833FC06F8178858985B1
:103320009A8520E03FEF4FE757E40E9419031816F3
:103330004CF56B857C858D859E8520E030E040E2F4
:1033400051E40E941F02DC01CB01BC01CD010E94AF
:103350004900DC01CB019E838D830FC089E190E0A1
:103360009C838B838B819C810197F1F79C838B835A
:103370008D819E8101979E838D838D819E81009793
:1033800069F714C06F81788589859A850E94490004
:10339000DC01CB019E838D838D819E819A838983FD
:1033A00089819A810197F1F79A8389832F960FB6C5
:1033B000F894DEBF0FBECDBFCF91DF910895DF93AC
:1033C000CF93CDB7DEB72F970FB6F894DEBF0FBE01
:1033D000CDBF8F8780E062E040E00E942E128F8593
:1033E0000E94E5180E949D178F858295807F0E941C
:1033F000E5180E949D1780E090E0A0E8BFE38B876E
:103400009C87AD87BE876B857C858D859E8520E0FA
:1034100030E04AE753E40E941F02DC01CB018F83B6
:103420009887A987BA876F81788589859A8520E0F2
:1034300030E040E85FE30E94790388232CF481E0C8
:1034400090E09E838D833FC06F81788589859A85C2
:1034500020E03FEF4FE757E40E94190318164CF5A0
:103460006B857C858D859E8520E030E040E251E4CF
:103470000E941F02DC01CB01BC01CD010E9449006A
:10348000DC01CB019E838D830FC089E190E09C839A
:103490008B838B819C810197F1F79C838B838D813A
:1034A0009E8101979E838D838D819E81009769F710
:1034B00014C06F81788589859A850E944900DC0156
:1034C000CB019E838D838D819E819A83898389819F
:1034D0009A810197F1F79A8389832F960FB6F89412
:1034E000DEBF0FBECDBFCF91DF910895DF93CF93A5
:1034F000CDB7DEB76C970FB6F894DEBF0FBECDBF69
:103500000E949E1880E090E0A0EAB1E4898F9A8F33
:10351000AB8FBC8F698D7A8D8B8D9C8D20E030E0D8
:103520004AE753E40E941F02DC01CB018D8B9E8B86
:10353000AF8BB88F6D897E898F89988D20E030E0C0
:1035400040E85FE30E94790388232CF481E090E057
:103550009C8B8B8B3FC06D897E898F89988D20E0F5
:103560003FEF4FE757E40E94190318164CF5698D99
:103570007A8D8B8D9C8D20E030E040E251E40E94FA
:103580001F02DC01CB01BC01CD010E944900DC011E
:10359000CB019C8B8B8B0FC089E190E09A8B898B40
:1035A00089899A890197F1F79A8B898B8B899C89F4
:1035B00001979C8B8B8B8B899C89009769F714C032
:1035C0006D897E898F89988D0E944900DC01CB012D
:1035D0009C8B8B8B8B899C89988B8F878F85988907
:1035E0000197F1F7988B8F8783E30E94DF1982E3BD
:1035F0000E94DF1988E20E94DF198EE00E94DF1925
:1036000081E00E94DF1980E090E0A0E2B1E48B87C6
:103610009C87AD87BE876B857C858D859E8520E0E8
:1036200030E04AE753E40E941F02DC01CB018F83A4
:103630009887A987BA876F81788589859A8520E0E0
:1036400030E040E85FE30E94790388232CF481E0B6
:1036500090E09E838D833FC06F81788589859A85B0
:1036600020E03FEF4FE757E40E94190318164CF58E
:103670006B857C858D859E8520E030E040E251E4BD
:103680000E941F02DC01CB01BC01CD010E94490058
:10369000DC01CB019E838D830FC089E190E09C8388
:1036A0008B838B819C810197F1F79C838B838D8128
:1036B0009E8101979E838D838D819E81009769F7FE
:1036C00014C06F81788589859A850E944900DC0144
:1036D000CB019E838D838D819E819A83898389818D
:1036E0009A810197F1F79A83898386E00E94DF1916
:1036F0008CE00E94DF196C960FB6F894DEBF0FBE07
:10370000CDBFCF91DF910895DF93CF93CDB7DEB7D3
:1037100081E00E94DF19CF91DF910895DF93CF936D
:1037200000D0CDB7DEB79A8389830BC0E981FA81D7
:10373000208189819A8101969A838983822F0E94B0
:103740004819E981FA818081882381F70F900F90D1
:10375000CF91DF910895DF93CF9300D000D00F92E7
:10376000CDB7DEB78A836B838B81282F30E03D8312
:103770002C838C819D8181309105C1F02C813D810C
:10378000223031052CF48C819D81009761F01AC0A4
:103790002C813D812230310569F08C819D818330FF
:1037A000910561F00FC08A8189830EC08A81805C97
:1037B00089830AC08A818C5E898306C08A818C5A7B
:1037C000898302C08A818983898180680E94DF1988
:1037D0000F900F900F900F900F90CF91DF91089561
:1037E000DF93CF93CDB7DEB762970FB6F894DEBF05
:1037F0000FBECDBF789482E08F87188ACE010F96D6
:103800000E94FB1581E0898B83E08A8BCE01419673
:103810000E94640B81E062E324EF31E040E050E07D
:103820000E94700C0E94761AA1E3B0E0E1E3F0E0A0
:10383000808181608C9388EB90E020E630E0B901D4
:1038400045E050E00E94391D83EB90E00E943B165A
:103850002091B3003091B40000D000D000D0EDB77B
:10386000FEB7319688EB90E09183808385E690E007
:1038700093838283358324830E94421D8DB79EB734
:1038800006960FB6F8949EBF0FBE8DBF81E060E034
:103890000E94AB1B88EB90E00E948E1B80E090E0C2
:1038A000A8ECB2E48B879C87AD87BE876B857C854F
:1038B0008D859E8520E030E04AE753E40E941F0298
:1038C000DC01CB018F839887A987BA876F817885C0
:1038D00089859A8520E030E040E85FE30E94790323
:1038E00088232CF481E090E09E838D833FC06F811C
:1038F000788589859A8520E03FEF4FE757E40E945D
:10390000190318164CF56B857C858D859E8520E006
:1039100030E040E251E40E941F02DC01CB01BC0117
:10392000CD010E944900DC01CB019E838D830FC035
:1039300089E190E09C838B838B819C810197F1F7D7
:103940009C838B838D819E8101979E838D838D8146
:103950009E81009769F76FCF6F81788589859A85F9
:103960000E944900DC01CB019E838D838D819E8165
:103970009A83898389819A810197F1F79A83898350
:103980005ACF629FD001739FF001829FE00DF11D1D
:10399000649FE00DF11D929FF00D839FF00D749FC9
:1039A000F00D659FF00D9927729FB00DE11DF91F75
:1039B000639FB00DE11DF91FBD01CF0111240895D2
:1039C000A1E21A2EAA1BBB1BFD010DC0AA1FBB1F23
:1039D000EE1FFF1FA217B307E407F50720F0A21B95
:1039E000B30BE40BF50B661F771F881F991F1A9402
:1039F00069F760957095809590959B01AC01BD012C
:103A0000CF0108952F923F924F925F926F927F92D3
:103A10008F929F92AF92BF92CF92DF92EF92FF92DE
:103A20000F931F93CF93DF93CDB7DEB7CA1BDB0B8A
:103A30000FB6F894DEBF0FBECDBF09942A8839882F
:103A400048885F846E847D848C849B84AA84B98436
:103A5000C884DF80EE80FD800C811B81AA81B98142
:103A6000CE0FD11D0FB6F894DEBF0FBECDBFED0156
:103A70000895FB01DC0102C001900D9241505040BD
:103A8000D8F70895AEE0B0E0E8E4FDE10C94101D35
:103A90000D891E8986E08C831A8309838FEF9FE747
:103AA0009E838D839E01275E3F4FCE0101966F89D5
:103AB000788DA9010E94661D2F813885020F131F82
:103AC000F80110822E96E4E00C942C1DABE0B0E0DF
:103AD000ECE6FDE10C94021D3C012B015A01FC01B6
:103AE00017821682838181FD03C06FEF7FEFC6C10D
:103AF0009AE0892E1E010894211C311CF3012381B8
:103B0000F20123FD859123FF81912F01882309F480
:103B1000B2C1853239F423FD859123FF81912F01B4
:103B2000853229F490E0B3010E94591FE7CF982F06
:103B3000FF24EE249924FFE1FF15D0F09B3269F0B9
:103B40009C3228F4903259F0933291F40EC09D3299
:103B500049F0903369F441E024C052E0F52A84E052
:103B6000F82A28C098E0F92A25C0E0E1FE2A22C000
:103B7000F7FC29C0892F80538A3070F4F6FE05C007
:103B8000989C902C1124980E15C0E89CE02C1124D0
:103B9000E80EF0E2FF2A0EC09E3229F4F6FC6BC15B
:103BA00040E4F42A07C09C3619F450E8F52A02C014
:103BB000983649F4F20123FD959123FF91912F014D
:103BC000992309F0B8CF892F8554833018F080529B
:103BD000833038F444E050E0A40EB51E5FE359830F
:103BE0000FC0933631F0933779F0933509F056C012
:103BF00020C0F5018081898342E050E0A40EB51E0B
:103C0000610101E010E012C0F501C080D180F6FC36
:103C100003C06FEF7FEF02C0692D70E042E050E01B
:103C2000A40EB51EC6010E944E1F8C015FE7F5224F
:103C300014C0F501C080D180F6FC03C06FEF7FEFA8
:103C400002C0692D70E042E050E0A40EB51EC6012E
:103C50000E94431F8C0150E8F52AF3FE07C01AC0EA
:103C600080E290E0B3010E94591FEA948E2D90E00B
:103C700008171907A8F30EC0F601F7FC8591F7FEA7
:103C800081916F0190E0B3010E94591FE110EA9405
:103C9000015010400115110579F7EAC0943611F072
:103CA000993669F5F7FE08C0F5012081318142811E
:103CB000538184E090E00AC0F501808191819C01EC
:103CC000442737FD4095542F82E090E0A80EB91E9E
:103CD0009FE6F92257FF09C05095409530952195F0
:103CE0003F4F4F4F5F4FE0E8FE2ACA01B901A101E3
:103CF0002AE030E00E94851FD82ED21840C09537A8
:103D000029F41F2D1F7E2AE030E01DC01F2D197FD2
:103D10009F3661F0903720F4983509F0ACC00FC0A1
:103D2000903739F0983709F0A6C004C028E030E099
:103D30000AC0106114FD146020E130E004C014FDDD
:103D4000166020E132E017FF08C0F5016081718143
:103D50008281938144E050E008C0F5018081918127
:103D6000BC0180E090E042E050E0A40EB51EA1014D
:103D70000E94851FD82ED2188FE7F82EF122F6FE6A
:103D80000BC05EEFF522D91438F4F4FE07C0F2FC44
:103D900005C08FEEF82202C01D2D01C0192DF4FEC2
:103DA0000DC0FE01ED0DF11D8081803319F499EEF7
:103DB000F92208C01F5FF2FE05C003C08F2D867870
:103DC00009F01F5F0F2DF3FC14C0F0FE0FC01E158D
:103DD00010F09D2C0BC09D2C9E0C911A1E2D06C020
:103DE00080E290E0B3010E94591F1F5F1E15C0F3CF
:103DF00004C01E1510F4E11A01C0EE2404FF0FC028
:103E000080E390E0B3010E94591F02FF1DC001FD35
:103E100003C088E790E00EC088E590E00BC0802FDB
:103E2000867891F001FF02C08BE201C080E2F7FCCE
:103E30008DE290E0B3010E94591F06C080E390E03C
:103E4000B3010E94591F9A94D914C0F3DA94F10176
:103E5000ED0DF11D808190E0B3010E94591FDD201E
:103E6000A9F706C080E290E0B3010E94591FEA94CE
:103E7000EE20C1F743CEF30166817781CB012B960B
:103E8000E2E10C941E1DFC01059061507040011090
:103E9000D8F7809590958E0F9F1F0895FC01615073
:103EA000704001900110D8F7809590958E0F9F1F5C
:103EB00008950F931F93CF93DF938C01EB018B81B8
:103EC00081FF1BC082FF0DC02E813F818C819D81AF
:103ED0002817390764F4E881F9810193F983E883AD
:103EE00006C0E885F985802F0995892B31F48E81EC
:103EF0009F8101969F838E8302C00FEF1FEFC80141
:103F0000DF91CF911F910F910895FA01AA272830D0
:103F100051F1203181F1E8946F936E7F6E5F7F4F96
:103F20008F4F9F4FAF4FB1E03ED0B4E03CD0670F12
:103F3000781F891F9A1FA11D680F791F8A1F911D65
:103F4000A11D6A0F711D811D911DA11D20D009F4B5
:103F500068943F912AE0269F11243019305D3193F7
:103F6000DEF6CF010895462F4770405D4193B3E0E0
:103F70000FD0C9F7F6CF462F4F70405D4A3318F087
:103F8000495D31FD4052419302D0A9F7EACFB4E038
:103F9000A6959795879577956795BA95C9F70097F0
:103FA0006105710508959B01AC010A2E0694579591
:103FB000479537952795BA95C9F7620F731F841FE8
:0A3FC000951FA01D0895F894FFCF8F
:103FCA007373202000256420434D20200000000048
:063FDA00000000000003DE
:00000001FF
